:020000040000FA
:06000000B7EF00F0120052
:020006000000F8
:08000800D9CFE6FFE1CFD9FFDB
:10001000020EE126DF6ADF50026E036AD8900350B9
:1000200004E6C80E025C000E035816E2010EDB6AFD
:10003000010EDB50026E036AD890035004E6C80E2E
:10004000025C000E035806E2000000000000010EF2
:10005000DB2AEED7DF2ADFD7020EE15C02E2E16A9B
:10006000E552E16EE552E7CFD9FF1200D9CFE6FFA6
:10007000E1CFD9FF060EE126020EDB6A0F0E9B6E62
:10008000720ED36E946A936A9268896A826A816AF0
:100090008068828CB9DF829CB7DFFBD7060EE15CFB
:1000A00002E2E16AE552E16EE552E7CFD9FF1200C4
:1000B000060EF66E000EF76E000EF86E00010900D7
:1000C000F550656F0900F550666F03E1656701D073
:1000D0003DD00900F550606F0900F550616F0900CF
:1000E000F550626F09000900F550E96E0900F550FE
:1000F000EA6E090009000900F550636F0900F55028
:10010000646F09000900F6CF67F0F7CF68F0F8CF09
:1001100069F060C0F6FF61C0F7FF62C0F8FF000140
:10012000635302E1645307E00900F550EE6E630784
:10013000F8E26407F9D767C0F6FF68C0F7FF69C047
:0E014000F8FF00016507000E665BBFD71200D6
:02014E00000EA1
:10015000F36E00EE00F0080E01D81200EA6002D043
:0E016000EE6AFCD7F350E9601200EE6AFCD79D
:02016E0013EE8E
:1001700000F023EE00F0F86A019C58EC00F0C5ECAA
:0A01800000F036EC00F0FBD712008F
:02018A00120061
:020000040030CA
:010003001EDE
:010005008377
:010006008178
:00000001FF
